{
  "contractName": "AuditLog",
  "abi": [
    {
      "anonymous": false,
      "inputs": [
        {
          "indexed": true,
          "internalType": "address",
          "name": "sender",
          "type": "address"
        },
        {
          "indexed": false,
          "internalType": "string",
          "name": "message",
          "type": "string"
        }
      ],
      "name": "LogEntry",
      "type": "event"
    },
    {
      "inputs": [
        {
          "internalType": "string",
          "name": "message",
          "type": "string"
        }
      ],
      "name": "log",
      "outputs": [],
      "stateMutability": "nonpayable",
      "type": "function"
    }
  ],
  "bytecode": "0x608060405234801561001057600080fd5b50610317806100206000396000f3fe608060405234801561001057600080fd5b506004361061002b5760003560e01c806341304fac14610030575b600080fd5b61004a600480360381019061004591906101f7565b61004c565b005b3373ffffffffffffffffffffffffffffffffffffffff167fa675d235575340c880155a44b34846514a46443b7242118e25ccbad248e11b318260405161009291906102bf565b60405180910390a250565b6000604051905090565b600080fd5b600080fd5b600080fd5b600080fd5b6000601f19601f8301169050919050565b7f4e487b7100000000000000000000000000000000000000000000000000000000600052604160045260246000fd5b610104826100bb565b810181811067ffffffffffffffff82111715610123576101226100cc565b5b80604052505050565b600061013661009d565b905061014282826100fb565b919050565b600067ffffffffffffffff821115610162576101616100cc565b5b61016b826100bb565b9050602081019050919050565b82818337600083830152505050565b600061019a61019584610147565b61012c565b9050828152602081018484840111156101b6576101b56100b6565b5b6101c1848285610178565b509392505050565b600082601f8301126101de576101dd6100b1565b5b81356101ee848260208601610187565b91505092915050565b60006020828403121561020d5761020c6100a7565b5b600082013567ffffffffffffffff81111561022b5761022a6100ac565b5b610237848285016101c9565b91505092915050565b600081519050919050565b600082825260208201905092915050565b60005b8381101561027a57808201518184015260208101905061025f565b60008484015250505050565b600061029182610240565b61029b818561024b565b93506102ab81856020860161025c565b6102b4816100bb565b840191505092915050565b600060208201905081810360008301526102d98184610286565b90509291505056fea2646970667358221220e2e179c42e50ed52dbda3a724e94c51d8bdc30a0541fcf46f6cc11c41d15e24b64736f6c63430008130033",
  "immutableReferences": {},
  "source": "// SPDX-License-Identifier: SEE LICENSE IN LICENSE\r\npragma solidity 0.8.19;\r\n\r\n\r\n\r\ncontract AuditLog {\r\n    event LogEntry(address indexed sender, string message);\r\n    \r\n    function log(string memory message) public {\r\n        emit LogEntry(msg.sender, message);\r\n    }\r\n}",
  "sourcePath": "C:\\Users\\sanja\\Desktop\\distorage-blockchain\\contracts\\Audit.sol",
  "compiler": {
    "name": "solc",
    "version": "0.8.19+commit.7dd6d404.Emscripten.clang"
  },
  "schemaVersion": "3.4.13",
  "updatedAt": "2023-04-06T19:29:21.800Z",
  "devdoc": {
    "kind": "dev",
    "methods": {},
    "version": 1
  },
  "userdoc": {
    "kind": "user",
    "methods": {},
    "version": 1
  }
}