{
  "contractName": "Audit",
  "abi": [
    {
      "inputs": [],
      "stateMutability": "nonpayable",
      "type": "constructor"
    },
    {
      "anonymous": false,
      "inputs": [
        {
          "indexed": true,
          "internalType": "bytes32",
          "name": "hostGenHash",
          "type": "bytes32"
        }
      ],
      "name": "AuditFailure",
      "type": "event"
    },
    {
      "anonymous": false,
      "inputs": [
        {
          "indexed": true,
          "internalType": "bytes32",
          "name": "hostGenHash",
          "type": "bytes32"
        }
      ],
      "name": "AuditSuccess",
      "type": "event"
    },
    {
      "anonymous": false,
      "inputs": [
        {
          "indexed": true,
          "internalType": "address",
          "name": "clientAddress",
          "type": "address"
        },
        {
          "indexed": true,
          "internalType": "uint256",
          "name": "dataId",
          "type": "uint256"
        },
        {
          "indexed": true,
          "internalType": "uint256",
          "name": "salt",
          "type": "uint256"
        }
      ],
      "name": "initiateAuditEvent",
      "type": "event"
    },
    {
      "inputs": [],
      "name": "client",
      "outputs": [
        {
          "internalType": "address",
          "name": "",
          "type": "address"
        }
      ],
      "stateMutability": "view",
      "type": "function"
    },
    {
      "inputs": [],
      "name": "dataId",
      "outputs": [
        {
          "internalType": "uint256",
          "name": "",
          "type": "uint256"
        }
      ],
      "stateMutability": "view",
      "type": "function"
    },
    {
      "inputs": [],
      "name": "host",
      "outputs": [
        {
          "internalType": "address",
          "name": "",
          "type": "address"
        }
      ],
      "stateMutability": "view",
      "type": "function"
    },
    {
      "inputs": [],
      "name": "salt",
      "outputs": [
        {
          "internalType": "uint256",
          "name": "",
          "type": "uint256"
        }
      ],
      "stateMutability": "view",
      "type": "function"
    },
    {
      "inputs": [
        {
          "internalType": "address",
          "name": "c",
          "type": "address"
        }
      ],
      "name": "setClient",
      "outputs": [],
      "stateMutability": "nonpayable",
      "type": "function"
    },
    {
      "inputs": [
        {
          "internalType": "bytes32",
          "name": "genHash",
          "type": "bytes32"
        },
        {
          "internalType": "uint256",
          "name": "salt",
          "type": "uint256"
        },
        {
          "internalType": "address",
          "name": "hostAddress",
          "type": "address"
        },
        {
          "internalType": "uint256",
          "name": "dataId",
          "type": "uint256"
        }
      ],
      "name": "initiateAudit",
      "outputs": [],
      "stateMutability": "payable",
      "type": "function"
    },
    {
      "inputs": [
        {
          "internalType": "bytes32",
          "name": "h_genHash",
          "type": "bytes32"
        }
      ],
      "name": "checkHash",
      "outputs": [],
      "stateMutability": "payable",
      "type": "function"
    }
  ],
  "bytecode": "0x608060405234801561001057600080fd5b50610823806100206000396000f3fe6080604052600436106100705760003560e01c8063bfa0b1331161004e578063bfa0b133146100e5578063c8a663ec14610110578063d604d8d11461013b578063f437bc591461015757610070565b8063109e94cf1461007557806377eddb20146100a05780638526690a146100bc575b600080fd5b34801561008157600080fd5b5061008a610182565b604051610097919061051b565b60405180910390f35b6100ba60048036038101906100b591906105d3565b6101a8565b005b3480156100c857600080fd5b506100e360048036038101906100de919061063a565b61027c565b005b3480156100f157600080fd5b506100fa6102c0565b6040516101079190610676565b60405180910390f35b34801561011c57600080fd5b506101256102c6565b6040516101329190610676565b60405180910390f35b61015560048036038101906101509190610691565b6102cc565b005b34801561016357600080fd5b5061016c6104b4565b604051610179919061051b565b60405180910390f35b600160009054906101000a900473ffffffffffffffffffffffffffffffffffffffff1681565b81600260006101000a81548173ffffffffffffffffffffffffffffffffffffffff021916908373ffffffffffffffffffffffffffffffffffffffff16021790555033600160006101000a81548173ffffffffffffffffffffffffffffffffffffffff021916908373ffffffffffffffffffffffffffffffffffffffff1602179055508360008190555082813373ffffffffffffffffffffffffffffffffffffffff167f8ee4ba3c9407ebe6c9ec2fdeb3d5174fbf2488ab38cf75b9bd6f9c866a32e83760405160405180910390a450505050565b80600160006101000a81548173ffffffffffffffffffffffffffffffffffffffff021916908373ffffffffffffffffffffffffffffffffffffffff16021790555050565b60045481565b60035481565b60005481036103b457807f1056255425695309d5a059a716b40b26021ccabc379cba93c94e381d89407b8860405160405180910390a260003373ffffffffffffffffffffffffffffffffffffffff1647604051610328906106ef565b60006040518083038185875af1925050503d8060008114610365576040519150601f19603f3d011682016040523d82523d6000602084013e61036a565b606091505b50509050806103ae576040517f08c379a00000000000000000000000000000000000000000000000000000000081526004016103a590610761565b60405180910390fd5b506104b1565b807faad82886c9f2e00112cc3fcd6df8a59ba38fac487b4d6cf8af6ed2ff9e4c126660405160405180910390a26000600160009054906101000a900473ffffffffffffffffffffffffffffffffffffffff1673ffffffffffffffffffffffffffffffffffffffff1647604051610429906106ef565b60006040518083038185875af1925050503d8060008114610466576040519150601f19603f3d011682016040523d82523d6000602084013e61046b565b606091505b50509050806104af576040517f08c379a00000000000000000000000000000000000000000000000000000000081526004016104a6906107cd565b60405180910390fd5b505b50565b600260009054906101000a900473ffffffffffffffffffffffffffffffffffffffff1681565b600073ffffffffffffffffffffffffffffffffffffffff82169050919050565b6000610505826104da565b9050919050565b610515816104fa565b82525050565b6000602082019050610530600083018461050c565b92915050565b600080fd5b6000819050919050565b61054e8161053b565b811461055957600080fd5b50565b60008135905061056b81610545565b92915050565b6000819050919050565b61058481610571565b811461058f57600080fd5b50565b6000813590506105a18161057b565b92915050565b6105b0816104fa565b81146105bb57600080fd5b50565b6000813590506105cd816105a7565b92915050565b600080600080608085870312156105ed576105ec610536565b5b60006105fb8782880161055c565b945050602061060c87828801610592565b935050604061061d878288016105be565b925050606061062e87828801610592565b91505092959194509250565b6000602082840312156106505761064f610536565b5b600061065e848285016105be565b91505092915050565b61067081610571565b82525050565b600060208201905061068b6000830184610667565b92915050565b6000602082840312156106a7576106a6610536565b5b60006106b58482850161055c565b91505092915050565b600081905092915050565b50565b60006106d96000836106be565b91506106e4826106c9565b600082019050919050565b60006106fa826106cc565b9150819050919050565b600082825260208201905092915050565b7f7472616e73616374696f6e206661696c6564206f6e2073756363657373000000600082015250565b600061074b601d83610704565b915061075682610715565b602082019050919050565b6000602082019050818103600083015261077a8161073e565b9050919050565b7f7472616e73616374696f6e206661696c6564206f6e206661696c757265000000600082015250565b60006107b7601d83610704565b91506107c282610781565b602082019050919050565b600060208201905081810360008301526107e6816107aa565b905091905056fea26469706673582212206e21c78f46dce63b249003eae93891fcfb044ef72ba38915205bf423230cf56264736f6c63430008130033",
  "immutableReferences": {},
  "source": "// SPDX-License-Identifier: SEE LICENSE IN LICENSE\npragma solidity 0.8.19;\n\ncontract Audit {\n\n    bytes32 private c_genHash;\n    address public client;\n    address public host;\n    uint public dataId;\n    uint public salt;\n\n    \n    constructor () {\n    }\n\n    function setClient (address c) public {\n        client = c;\n    }\n\n    event initiateAuditEvent(\n        address indexed clientAddress,\n        uint indexed dataId,\n        uint indexed salt\n    );\n\n    function initiateAudit(bytes32 genHash, uint salt, address hostAddress, uint dataId) external payable{\n        host = hostAddress;\n        client = msg.sender;\n\n        c_genHash = genHash;\n\n        salt = salt;\n        dataId = dataId;\n\n\n        emit initiateAuditEvent(msg.sender, dataId, salt);\n    }\n\n    event AuditSuccess(bytes32 indexed hostGenHash);\n\n    event AuditFailure(bytes32 indexed hostGenHash);\n\n    function checkHash(bytes32 h_genHash) external payable{\n        if (h_genHash == c_genHash){\n            emit AuditSuccess(h_genHash);\n            (bool success, ) = (msg.sender).call{value: address(this).balance}(\"\");\n            require(success, \"transaction failed on success\"); \n        } \n        else {\n            emit AuditFailure(h_genHash);\n            (bool success, ) = client.call{value: address(this).balance}(\"\");\n            require(success, \"transaction failed on failure\"); \n        }\n    }\n}",
  "sourcePath": "/Users/anuragparcha/Desktop/DCSBlockchain/contracts/Audit.sol",
  "compiler": {
    "name": "solc",
    "version": "0.8.19+commit.7dd6d404.Emscripten.clang"
  },
  "schemaVersion": "3.4.13",
  "updatedAt": "2023-04-11T02:03:51.118Z",
  "devdoc": {
    "kind": "dev",
    "methods": {},
    "version": 1
  },
  "userdoc": {
    "kind": "user",
    "methods": {},
    "version": 1
  }
}