{
  "contractName": "PingContract",
  "abi": [
    {
      "inputs": [],
      "stateMutability": "nonpayable",
      "type": "constructor"
    },
    {
      "anonymous": false,
      "inputs": [
        {
          "indexed": false,
          "internalType": "uint256",
          "name": "timestamp",
          "type": "uint256"
        }
      ],
      "name": "Ping",
      "type": "event"
    },
    {
      "inputs": [],
      "name": "sendPing",
      "outputs": [],
      "stateMutability": "nonpayable",
      "type": "function"
    }
  ],
  "bytecode": "0x608060405234801561001057600080fd5b504260008190555061023e806100276000396000f3fe608060405234801561001057600080fd5b506004361061002b5760003560e01c8063f9fbc27f14610030575b600080fd5b61003861003a565b005b6104b060005461004a9190610107565b42101561008c576040517f08c379a0000000000000000000000000000000000000000000000000000000008152600401610083906101be565b60405180910390fd5b426000819055507f48257dc961b6f792c2b78a080dacfed693b660960a702de21cee364e20270e2f6000546040516100c491906101ed565b60405180910390a1565b6000819050919050565b7f4e487b7100000000000000000000000000000000000000000000000000000000600052601160045260246000fd5b6000610112826100ce565b915061011d836100ce565b9250828201905080821115610135576101346100d8565b5b92915050565b600082825260208201905092915050565b7f4e6f7420656e6f7567682074696d6520686173207061737365642073696e636560008201527f20746865206c6173742070696e67000000000000000000000000000000000000602082015250565b60006101a8602e8361013b565b91506101b38261014c565b604082019050919050565b600060208201905081810360008301526101d78161019b565b9050919050565b6101e7816100ce565b82525050565b600060208201905061020260008301846101de565b9291505056fea264697066735822122002fa7884b4b555d9b8d895eb312439583f6b955577d6496689b4573c8b602c7964736f6c63430008130033",
  "immutableReferences": {},
  "source": "// SPDX-License-Identifier: SEE LICENSE IN LICENSE\r\npragma solidity 0.8.19;\r\n\r\n\r\n\r\ncontract PingContract {\r\n    uint256 private lastPingTime;\r\n    uint256 private constant PING_INTERVAL = 20 minutes;\r\n\r\n    event Ping(uint256 timestamp);\r\n\r\n    constructor() {\r\n        lastPingTime = block.timestamp;\r\n    }\r\n\r\n    function sendPing() public {\r\n        require(block.timestamp >= lastPingTime + PING_INTERVAL, \"Not enough time has passed since the last ping\");\r\n        lastPingTime = block.timestamp;\r\n        emit Ping(lastPingTime);\r\n    }\r\n}",
  "sourcePath": "C:\\Users\\sanja\\Desktop\\distorage-blockchain\\contracts\\Ping.sol",
  "compiler": {
    "name": "solc",
    "version": "0.8.19+commit.7dd6d404.Emscripten.clang"
  },
  "schemaVersion": "3.4.13",
  "updatedAt": "2023-04-06T19:29:21.816Z",
  "devdoc": {
    "kind": "dev",
    "methods": {},
    "version": 1
  },
  "userdoc": {
    "kind": "user",
    "methods": {},
    "version": 1
  }
}