{
  "contractName": "Storage",
  "abi": [
    {
      "inputs": [],
      "stateMutability": "nonpayable",
      "type": "constructor"
    },
    {
      "anonymous": false,
      "inputs": [
        {
          "indexed": true,
          "internalType": "uint256",
          "name": "id",
          "type": "uint256"
        },
        {
          "indexed": true,
          "internalType": "address",
          "name": "myAddress",
          "type": "address"
        },
        {
          "indexed": true,
          "internalType": "bytes32",
          "name": "locHash",
          "type": "bytes32"
        }
      ],
      "name": "addHostEvent",
      "type": "event"
    },
    {
      "anonymous": false,
      "inputs": [
        {
          "indexed": true,
          "internalType": "uint256",
          "name": "hostId",
          "type": "uint256"
        },
        {
          "indexed": false,
          "internalType": "address",
          "name": "clientAddress",
          "type": "address"
        },
        {
          "indexed": false,
          "internalType": "uint256",
          "name": "remainingHostDiskspace",
          "type": "uint256"
        },
        {
          "indexed": true,
          "internalType": "uint256",
          "name": "interval",
          "type": "uint256"
        },
        {
          "indexed": true,
          "internalType": "string",
          "name": "salt",
          "type": "string"
        }
      ],
      "name": "initiateStorageEvent",
      "type": "event"
    },
    {
      "inputs": [
        {
          "internalType": "address",
          "name": "",
          "type": "address"
        }
      ],
      "name": "clientDataCount",
      "outputs": [
        {
          "internalType": "uint256",
          "name": "",
          "type": "uint256"
        }
      ],
      "stateMutability": "view",
      "type": "function",
      "constant": true
    },
    {
      "inputs": [
        {
          "internalType": "address",
          "name": "",
          "type": "address"
        },
        {
          "internalType": "uint256",
          "name": "",
          "type": "uint256"
        }
      ],
      "name": "clientDataMap",
      "outputs": [
        {
          "internalType": "bytes32",
          "name": "",
          "type": "bytes32"
        }
      ],
      "stateMutability": "view",
      "type": "function",
      "constant": true
    },
    {
      "inputs": [],
      "name": "dataCount",
      "outputs": [
        {
          "internalType": "uint256",
          "name": "",
          "type": "uint256"
        }
      ],
      "stateMutability": "view",
      "type": "function",
      "constant": true
    },
    {
      "inputs": [
        {
          "internalType": "bytes32",
          "name": "",
          "type": "bytes32"
        }
      ],
      "name": "datas",
      "outputs": [
        {
          "internalType": "bytes32",
          "name": "genHash",
          "type": "bytes32"
        },
        {
          "internalType": "address",
          "name": "clientAddress",
          "type": "address"
        },
        {
          "internalType": "address",
          "name": "hostAddress",
          "type": "address"
        },
        {
          "internalType": "uint256",
          "name": "auditInterval",
          "type": "uint256"
        },
        {
          "internalType": "uint256",
          "name": "size",
          "type": "uint256"
        },
        {
          "internalType": "string",
          "name": "salt",
          "type": "string"
        }
      ],
      "stateMutability": "view",
      "type": "function",
      "constant": true
    },
    {
      "inputs": [],
      "name": "hostCount",
      "outputs": [
        {
          "internalType": "uint256",
          "name": "",
          "type": "uint256"
        }
      ],
      "stateMutability": "view",
      "type": "function",
      "constant": true
    },
    {
      "inputs": [
        {
          "internalType": "uint256",
          "name": "",
          "type": "uint256"
        }
      ],
      "name": "hosts",
      "outputs": [
        {
          "internalType": "uint256",
          "name": "id",
          "type": "uint256"
        },
        {
          "internalType": "address",
          "name": "myAddress",
          "type": "address"
        },
        {
          "internalType": "string",
          "name": "ip",
          "type": "string"
        },
        {
          "internalType": "uint256",
          "name": "port",
          "type": "uint256"
        },
        {
          "internalType": "string",
          "name": "name",
          "type": "string"
        },
        {
          "internalType": "uint256",
          "name": "diskspace",
          "type": "uint256"
        },
        {
          "internalType": "bytes32",
          "name": "locHash",
          "type": "bytes32"
        },
        {
          "internalType": "uint256",
          "name": "dataCount",
          "type": "uint256"
        }
      ],
      "stateMutability": "view",
      "type": "function",
      "constant": true
    },
    {
      "inputs": [
        {
          "internalType": "address",
          "name": "",
          "type": "address"
        }
      ],
      "name": "isHost",
      "outputs": [
        {
          "internalType": "bool",
          "name": "",
          "type": "bool"
        }
      ],
      "stateMutability": "view",
      "type": "function",
      "constant": true
    },
    {
      "inputs": [
        {
          "internalType": "address",
          "name": "addr",
          "type": "address"
        },
        {
          "internalType": "uint256",
          "name": "index",
          "type": "uint256"
        }
      ],
      "name": "getClientData",
      "outputs": [
        {
          "internalType": "bytes32",
          "name": "",
          "type": "bytes32"
        }
      ],
      "stateMutability": "view",
      "type": "function",
      "constant": true
    },
    {
      "inputs": [
        {
          "internalType": "string",
          "name": "_name",
          "type": "string"
        },
        {
          "internalType": "uint256",
          "name": "port",
          "type": "uint256"
        },
        {
          "internalType": "string",
          "name": "ip",
          "type": "string"
        },
        {
          "internalType": "bytes32",
          "name": "locHash",
          "type": "bytes32"
        },
        {
          "internalType": "uint256",
          "name": "diskspace",
          "type": "uint256"
        }
      ],
      "name": "addHost",
      "outputs": [],
      "stateMutability": "nonpayable",
      "type": "function"
    },
    {
      "inputs": [
        {
          "internalType": "uint256",
          "name": "id",
          "type": "uint256"
        },
        {
          "internalType": "bytes32",
          "name": "genHash",
          "type": "bytes32"
        },
        {
          "internalType": "uint256",
          "name": "size",
          "type": "uint256"
        },
        {
          "internalType": "uint256",
          "name": "interval",
          "type": "uint256"
        },
        {
          "internalType": "string",
          "name": "salt",
          "type": "string"
        }
      ],
      "name": "initiateStorage",
      "outputs": [],
      "stateMutability": "nonpayable",
      "type": "function"
    }
  ],
  "bytecode": "0x608060405234801561001057600080fd5b5061188a806100206000396000f3fe608060405234801561001057600080fd5b506004361061009e5760003560e01c80636c065548116100665780636c0655481461018d578063bfdbb8d3146101ab578063ea1abd3f146101c7578063eb2931b7146101e3578063f3cf1e0d146102135761009e565b8063064d07d2146100a357806308949c34146100d8578063240184df146101085780633735b3c6146101385780635da40c471461016f575b600080fd5b6100bd60048036038101906100b89190610cf7565b610243565b6040516100cf96959493929190610e1d565b60405180910390f35b6100f260048036038101906100ed9190610edd565b610347565b6040516100ff9190610f1d565b60405180910390f35b610122600480360381019061011d9190610edd565b6103ad565b60405161012f9190610f1d565b60405180910390f35b610152600480360381019061014d9190610f38565b6103de565b604051610166989796959493929190610f65565b60405180910390f35b610177610556565b6040516101849190610ff1565b60405180910390f35b61019561055c565b6040516101a29190610ff1565b60405180910390f35b6101c560048036038101906101c09190611141565b610562565b005b6101e160048036038101906101dc91906111f4565b610785565b005b6101fd60048036038101906101f8919061128b565b610c75565b60405161020a91906112d3565b60405180910390f35b61022d6004803603810190610228919061128b565b610c95565b60405161023a9190610ff1565b60405180910390f35b60046020528060005260406000206000915090508060000154908060010160009054906101000a900473ffffffffffffffffffffffffffffffffffffffff16908060020160009054906101000a900473ffffffffffffffffffffffffffffffffffffffff16908060030154908060040154908060050180546102c49061131d565b80601f01602080910402602001604051908101604052809291908181526020018280546102f09061131d565b801561033d5780601f106103125761010080835404028352916020019161033d565b820191906000526020600020905b81548152906001019060200180831161032057829003601f168201915b5050505050905086565b6000600360008473ffffffffffffffffffffffffffffffffffffffff1673ffffffffffffffffffffffffffffffffffffffff168152602001908152602001600020828154811061039a5761039961134e565b5b9060005260206000200154905092915050565b600360205281600052604060002081815481106103c957600080fd5b90600052602060002001600091509150505481565b60006020528060005260406000206000915090508060000154908060010160009054906101000a900473ffffffffffffffffffffffffffffffffffffffff169080600201805461042d9061131d565b80601f01602080910402602001604051908101604052809291908181526020018280546104599061131d565b80156104a65780601f1061047b576101008083540402835291602001916104a6565b820191906000526020600020905b81548152906001019060200180831161048957829003601f168201915b5050505050908060030154908060040180546104c19061131d565b80601f01602080910402602001604051908101604052809291908181526020018280546104ed9061131d565b801561053a5780601f1061050f5761010080835404028352916020019161053a565b820191906000526020600020905b81548152906001019060200180831161051d57829003601f168201915b5050505050908060050154908060060154908060070154905088565b60075481565b60065481565b600160003373ffffffffffffffffffffffffffffffffffffffff1673ffffffffffffffffffffffffffffffffffffffff16815260200190815260200160002060009054906101000a900460ff16156105b957600080fd5b60405180610100016040528060065481526020013373ffffffffffffffffffffffffffffffffffffffff168152602001848152602001858152602001868152602001828152602001838152602001600081525060008060065481526020019081526020016000206000820151816000015560208201518160010160006101000a81548173ffffffffffffffffffffffffffffffffffffffff021916908373ffffffffffffffffffffffffffffffffffffffff16021790555060408201518160020190816106869190611529565b506060820151816003015560808201518160040190816106a69190611529565b5060a0820151816005015560c0820151816006015560e0820151816007015590505060018060003373ffffffffffffffffffffffffffffffffffffffff1673ffffffffffffffffffffffffffffffffffffffff16815260200190815260200160002060006101000a81548160ff021916908315150217905550813373ffffffffffffffffffffffffffffffffffffffff166006547f9d9c5371072544fed0be92a032ce33d9f660ec1b60678429f5d989c74550178860405160405180910390a4600660008154809291906107799061162a565b91905055505050505050565b600160003373ffffffffffffffffffffffffffffffffffffffff1673ffffffffffffffffffffffffffffffffffffffff16815260200190815260200160002060009054906101000a900460ff16156107dc57600080fd5b6001600080600088815260200190815260200160002060010160009054906101000a900473ffffffffffffffffffffffffffffffffffffffff1673ffffffffffffffffffffffffffffffffffffffff1673ffffffffffffffffffffffffffffffffffffffff16815260200190815260200160002060009054906101000a900460ff1661086757600080fd5b6000808681526020019081526020016000206005015483111561088957600080fd5b6040518060c001604052808581526020013373ffffffffffffffffffffffffffffffffffffffff16815260200160008088815260200190815260200160002060010160009054906101000a900473ffffffffffffffffffffffffffffffffffffffff1673ffffffffffffffffffffffffffffffffffffffff16815260200183815260200184815260200182815250600460008681526020019081526020016000206000820151816000015560208201518160010160006101000a81548173ffffffffffffffffffffffffffffffffffffffff021916908373ffffffffffffffffffffffffffffffffffffffff16021790555060408201518160020160006101000a81548173ffffffffffffffffffffffffffffffffffffffff021916908373ffffffffffffffffffffffffffffffffffffffff160217905550606082015181600301556080820151816004015560a08201518160050190816109eb9190611529565b5090505060008086815260200190815260200160002060056000868152602001908152602001600020600082015481600001556001820160009054906101000a900473ffffffffffffffffffffffffffffffffffffffff168160010160006101000a81548173ffffffffffffffffffffffffffffffffffffffff021916908373ffffffffffffffffffffffffffffffffffffffff16021790555060028201816002019081610a999190611688565b506003820154816003015560048201816004019081610ab89190611688565b50600582015481600501556006820154816006015560078201548160070155905050826000808781526020019081526020016000206005016000828254610aff9190611770565b9250508190555060016000808781526020019081526020016000206007016000828254610b2c91906117a4565b9250508190555060076000815480929190610b469061162a565b91905055506001600260003373ffffffffffffffffffffffffffffffffffffffff1673ffffffffffffffffffffffffffffffffffffffff1681526020019081526020016000206000828254610b9b91906117a4565b92505081905550600360003373ffffffffffffffffffffffffffffffffffffffff1673ffffffffffffffffffffffffffffffffffffffff16815260200190815260200160002084908060018154018082558091505060019003906000526020600020016000909190919091505580604051610c169190611814565b604051809103902082867f3df96676944848ccf0cb4c4a163ad914ee6c51593d41a055e786bb1c9a4fe5f4336000808b815260200190815260200160002060050154604051610c6692919061182b565b60405180910390a45050505050565b60016020528060005260406000206000915054906101000a900460ff1681565b60026020528060005260406000206000915090505481565b6000604051905090565b600080fd5b600080fd5b6000819050919050565b610cd481610cc1565b8114610cdf57600080fd5b50565b600081359050610cf181610ccb565b92915050565b600060208284031215610d0d57610d0c610cb7565b5b6000610d1b84828501610ce2565b91505092915050565b610d2d81610cc1565b82525050565b600073ffffffffffffffffffffffffffffffffffffffff82169050919050565b6000610d5e82610d33565b9050919050565b610d6e81610d53565b82525050565b6000819050919050565b610d8781610d74565b82525050565b600081519050919050565b600082825260208201905092915050565b60005b83811015610dc7578082015181840152602081019050610dac565b60008484015250505050565b6000601f19601f8301169050919050565b6000610def82610d8d565b610df98185610d98565b9350610e09818560208601610da9565b610e1281610dd3565b840191505092915050565b600060c082019050610e326000830189610d24565b610e3f6020830188610d65565b610e4c6040830187610d65565b610e596060830186610d7e565b610e666080830185610d7e565b81810360a0830152610e788184610de4565b9050979650505050505050565b610e8e81610d53565b8114610e9957600080fd5b50565b600081359050610eab81610e85565b92915050565b610eba81610d74565b8114610ec557600080fd5b50565b600081359050610ed781610eb1565b92915050565b60008060408385031215610ef457610ef3610cb7565b5b6000610f0285828601610e9c565b9250506020610f1385828601610ec8565b9150509250929050565b6000602082019050610f326000830184610d24565b92915050565b600060208284031215610f4e57610f4d610cb7565b5b6000610f5c84828501610ec8565b91505092915050565b600061010082019050610f7b600083018b610d7e565b610f88602083018a610d65565b8181036040830152610f9a8189610de4565b9050610fa96060830188610d7e565b8181036080830152610fbb8187610de4565b9050610fca60a0830186610d7e565b610fd760c0830185610d24565b610fe460e0830184610d7e565b9998505050505050505050565b60006020820190506110066000830184610d7e565b92915050565b600080fd5b600080fd5b7f4e487b7100000000000000000000000000000000000000000000000000000000600052604160045260246000fd5b61104e82610dd3565b810181811067ffffffffffffffff8211171561106d5761106c611016565b5b80604052505050565b6000611080610cad565b905061108c8282611045565b919050565b600067ffffffffffffffff8211156110ac576110ab611016565b5b6110b582610dd3565b9050602081019050919050565b82818337600083830152505050565b60006110e46110df84611091565b611076565b905082815260208101848484011115611100576110ff611011565b5b61110b8482856110c2565b509392505050565b600082601f8301126111285761112761100c565b5b81356111388482602086016110d1565b91505092915050565b600080600080600060a0868803121561115d5761115c610cb7565b5b600086013567ffffffffffffffff81111561117b5761117a610cbc565b5b61118788828901611113565b955050602061119888828901610ec8565b945050604086013567ffffffffffffffff8111156111b9576111b8610cbc565b5b6111c588828901611113565b93505060606111d688828901610ce2565b92505060806111e788828901610ec8565b9150509295509295909350565b600080600080600060a086880312156112105761120f610cb7565b5b600061121e88828901610ec8565b955050602061122f88828901610ce2565b945050604061124088828901610ec8565b935050606061125188828901610ec8565b925050608086013567ffffffffffffffff81111561127257611271610cbc565b5b61127e88828901611113565b9150509295509295909350565b6000602082840312156112a1576112a0610cb7565b5b60006112af84828501610e9c565b91505092915050565b60008115159050919050565b6112cd816112b8565b82525050565b60006020820190506112e860008301846112c4565b92915050565b7f4e487b7100000000000000000000000000000000000000000000000000000000600052602260045260246000fd5b6000600282049050600182168061133557607f821691505b602082108103611348576113476112ee565b5b50919050565b7f4e487b7100000000000000000000000000000000000000000000000000000000600052603260045260246000fd5b60008190508160005260206000209050919050565b60006020601f8301049050919050565b600082821b905092915050565b6000600883026113df7fffffffffffffffffffffffffffffffffffffffffffffffffffffffffffffffff826113a2565b6113e986836113a2565b95508019841693508086168417925050509392505050565b6000819050919050565b600061142661142161141c84610d74565b611401565b610d74565b9050919050565b6000819050919050565b6114408361140b565b61145461144c8261142d565b8484546113af565b825550505050565b600090565b61146961145c565b611474818484611437565b505050565b5b818110156114985761148d600082611461565b60018101905061147a565b5050565b601f8211156114dd576114ae8161137d565b6114b784611392565b810160208510156114c6578190505b6114da6114d285611392565b830182611479565b50505b505050565b600082821c905092915050565b6000611500600019846008026114e2565b1980831691505092915050565b600061151983836114ef565b9150826002028217905092915050565b61153282610d8d565b67ffffffffffffffff81111561154b5761154a611016565b5b611555825461131d565b61156082828561149c565b600060209050601f8311600181146115935760008415611581578287015190505b61158b858261150d565b8655506115f3565b601f1984166115a18661137d565b60005b828110156115c9578489015182556001820191506020850194506020810190506115a4565b868310156115e657848901516115e2601f8916826114ef565b8355505b6001600288020188555050505b505050505050565b7f4e487b7100000000000000000000000000000000000000000000000000000000600052601160045260246000fd5b600061163582610d74565b91507fffffffffffffffffffffffffffffffffffffffffffffffffffffffffffffffff8203611667576116666115fb565b5b600182019050919050565b6000815490506116818161131d565b9050919050565b81810361169657505061176e565b61169f82611672565b67ffffffffffffffff8111156116b8576116b7611016565b5b6116c2825461131d565b6116cd82828561149c565b6000601f8311600181146116fc57600084156116ea578287015490505b6116f4858261150d565b865550611767565b601f19841661170a8761137d565b96506117158661137d565b60005b8281101561173d57848901548255600182019150600185019450602081019050611718565b8683101561175a5784890154611756601f8916826114ef565b8355505b6001600288020188555050505b5050505050505b565b600061177b82610d74565b915061178683610d74565b925082820390508181111561179e5761179d6115fb565b5b92915050565b60006117af82610d74565b91506117ba83610d74565b92508282019050808211156117d2576117d16115fb565b5b92915050565b600081905092915050565b60006117ee82610d8d565b6117f881856117d8565b9350611808818560208601610da9565b80840191505092915050565b600061182082846117e3565b915081905092915050565b60006040820190506118406000830185610d65565b61184d6020830184610d7e565b939250505056fea2646970667358221220f3e45e59cc86ec2c9a68fb39cb8f9729e88d4637fbd8167c9305749d985f776c64736f6c63430008130033",
  "immutableReferences": {},
  "source": "// SPDX-License-Identifier: SEE LICENSE IN LICENSE\r\npragma solidity 0.8.19;\r\n\r\ncontract Storage {\r\n    // MODEL A Host\r\n    struct Host {\r\n        uint id;\r\n        address myAddress;\r\n        string ip;\r\n        uint port;\r\n        string name;\r\n        uint diskspace;\r\n        bytes32 locHash;\r\n        uint dataCount;\r\n    }\r\n\r\n    struct Data {\r\n        bytes32 genHash;\r\n        address clientAddress;\r\n        address hostAddress;\r\n        uint auditInterval;\r\n        uint size;\r\n        string salt;\r\n    }\r\n\r\n    mapping(uint => Host) public hosts;\r\n    mapping(address => bool) public isHost;\r\n    mapping(address => uint) public clientDataCount;\r\n    mapping(address => bytes32[]) public clientDataMap;\r\n    mapping(bytes32 => Data) public datas;\r\n    mapping(bytes32 => Host) private dataToHost; // since the mapping is one-to-many between host and data.\r\n    uint public hostCount;\r\n    uint public dataCount;\r\n    \r\n    constructor () {\r\n    }\r\n\r\n    function getClientData(address addr, uint index) public view returns(bytes32){\r\n        return clientDataMap[addr][index];\r\n    }\r\n\r\n    event addHostEvent (\r\n        uint indexed id,\r\n        address indexed myAddress,\r\n        bytes32 indexed locHash\r\n    );\r\n\r\n    function addHost (string memory _name, uint port, string memory ip, bytes32 locHash, uint diskspace) public {\r\n        require(!isHost[msg.sender]);\r\n\r\n        hosts[hostCount] = Host(hostCount, msg.sender, ip, port, _name, diskspace, locHash, 0);\r\n        isHost[msg.sender] = true;\r\n\r\n        emit addHostEvent(hostCount, msg.sender, locHash);\r\n        hostCount ++;\r\n    }\r\n\r\n    event initiateStorageEvent(\r\n        uint indexed hostId,\r\n        address clientAddress,\r\n        uint remainingHostDiskspace,\r\n        uint indexed interval,\r\n        string indexed salt\r\n    );\r\n\r\n    // TO initiate storage of a file from client to host\r\n    // lochash - hash of Host ip, port, and name\r\n    // genHash - Hash of the encrypted file\r\n    // salt - salt of the hashing function \r\n    function initiateStorage (uint id, bytes32 genHash, uint size, uint interval, string memory salt) public {\r\n        // Overall datacount update\r\n        require(!isHost[msg.sender]);\r\n        require(isHost[hosts[id].myAddress]);\r\n        require(size <= hosts[id].diskspace);\r\n        // Now that we get the input, we have to emit an event which is used as a check for socket transmission\r\n\r\n        // Create a Data Instance\r\n        datas[genHash] = Data(genHash, msg.sender, hosts[id].myAddress, interval, size, salt);\r\n\r\n        // Link Data to Host\r\n        dataToHost[genHash] = hosts[id];\r\n\r\n        // Update diskspace and dataCount of host\r\n        hosts[id].diskspace -= size;\r\n        hosts[id].dataCount += 1;\r\n\r\n        dataCount ++;\r\n        clientDataCount[msg.sender] += 1;\r\n        clientDataMap[msg.sender].push(genHash);\r\n        emit initiateStorageEvent(id, msg.sender, hosts[id].diskspace, interval, salt);\r\n    } \r\n\r\n}",
  "sourcePath": "C:\\Users\\sanja\\Desktop\\distorage-blockchain\\contracts\\Storage.sol",
  "compiler": {
    "name": "solc",
    "version": "0.8.19+commit.7dd6d404.Emscripten.clang"
  },
  "schemaVersion": "3.4.13",
  "updatedAt": "2023-04-06T19:29:24.641Z",
  "networkType": "ethereum",
  "devdoc": {
    "kind": "dev",
    "methods": {},
    "version": 1
  },
  "userdoc": {
    "kind": "user",
    "methods": {},
    "version": 1
  }
}