{
  "contractName": "Storage",
  "abi": [
    {
      "inputs": [],
      "stateMutability": "nonpayable",
      "type": "constructor"
    },
    {
      "anonymous": false,
      "inputs": [
        {
          "indexed": true,
          "internalType": "uint256",
          "name": "id",
          "type": "uint256"
        },
        {
          "indexed": true,
          "internalType": "address",
          "name": "myAddress",
          "type": "address"
        },
        {
          "indexed": true,
          "internalType": "bytes32",
          "name": "locHash",
          "type": "bytes32"
        }
      ],
      "name": "addHostEvent",
      "type": "event"
    },
    {
      "anonymous": false,
      "inputs": [
        {
          "indexed": true,
          "internalType": "address",
          "name": "hostId",
          "type": "address"
        },
        {
          "indexed": false,
          "internalType": "address",
          "name": "clientAddress",
          "type": "address"
        },
        {
          "indexed": false,
          "internalType": "uint256",
          "name": "remainingHostDiskspace",
          "type": "uint256"
        },
        {
          "indexed": true,
          "internalType": "uint256",
          "name": "dataId",
          "type": "uint256"
        },
        {
          "indexed": false,
          "internalType": "uint256",
          "name": "interval",
          "type": "uint256"
        },
        {
          "indexed": true,
          "internalType": "uint256",
          "name": "salty",
          "type": "uint256"
        }
      ],
      "name": "initiateStorageEvent",
      "type": "event"
    },
    {
      "inputs": [
        {
          "internalType": "address",
          "name": "",
          "type": "address"
        }
      ],
      "name": "clientDataCount",
      "outputs": [
        {
          "internalType": "uint256",
          "name": "",
          "type": "uint256"
        }
      ],
      "stateMutability": "view",
      "type": "function",
      "constant": true
    },
    {
      "inputs": [
        {
          "internalType": "address",
          "name": "",
          "type": "address"
        },
        {
          "internalType": "uint256",
          "name": "",
          "type": "uint256"
        }
      ],
      "name": "clientDataMap",
      "outputs": [
        {
          "internalType": "uint256",
          "name": "",
          "type": "uint256"
        }
      ],
      "stateMutability": "view",
      "type": "function",
      "constant": true
    },
    {
      "inputs": [],
      "name": "dataCount",
      "outputs": [
        {
          "internalType": "uint256",
          "name": "",
          "type": "uint256"
        }
      ],
      "stateMutability": "view",
      "type": "function",
      "constant": true
    },
    {
      "inputs": [
        {
          "internalType": "uint256",
          "name": "",
          "type": "uint256"
        }
      ],
      "name": "datas",
      "outputs": [
        {
          "internalType": "bytes32",
          "name": "genHash",
          "type": "bytes32"
        },
        {
          "internalType": "address",
          "name": "clientAddress",
          "type": "address"
        },
        {
          "internalType": "address",
          "name": "hostAddress",
          "type": "address"
        },
        {
          "internalType": "uint256",
          "name": "auditInterval",
          "type": "uint256"
        },
        {
          "internalType": "uint256",
          "name": "size",
          "type": "uint256"
        },
        {
          "internalType": "uint256",
          "name": "salt",
          "type": "uint256"
        },
        {
          "internalType": "uint256",
          "name": "dataId",
          "type": "uint256"
        }
      ],
      "stateMutability": "view",
      "type": "function",
      "constant": true
    },
    {
      "inputs": [],
      "name": "hostCount",
      "outputs": [
        {
          "internalType": "uint256",
          "name": "",
          "type": "uint256"
        }
      ],
      "stateMutability": "view",
      "type": "function",
      "constant": true
    },
    {
      "inputs": [
        {
          "internalType": "uint256",
          "name": "",
          "type": "uint256"
        }
      ],
      "name": "hosts",
      "outputs": [
        {
          "internalType": "uint256",
          "name": "id",
          "type": "uint256"
        },
        {
          "internalType": "address",
          "name": "myAddress",
          "type": "address"
        },
        {
          "internalType": "string",
          "name": "ip",
          "type": "string"
        },
        {
          "internalType": "uint256",
          "name": "port",
          "type": "uint256"
        },
        {
          "internalType": "string",
          "name": "name",
          "type": "string"
        },
        {
          "internalType": "uint256",
          "name": "diskspace",
          "type": "uint256"
        },
        {
          "internalType": "bytes32",
          "name": "locHash",
          "type": "bytes32"
        },
        {
          "internalType": "uint256",
          "name": "dataCount",
          "type": "uint256"
        }
      ],
      "stateMutability": "view",
      "type": "function",
      "constant": true
    },
    {
      "inputs": [
        {
          "internalType": "uint256",
          "name": "",
          "type": "uint256"
        }
      ],
      "name": "isData",
      "outputs": [
        {
          "internalType": "bool",
          "name": "",
          "type": "bool"
        }
      ],
      "stateMutability": "view",
      "type": "function",
      "constant": true
    },
    {
      "inputs": [
        {
          "internalType": "address",
          "name": "",
          "type": "address"
        }
      ],
      "name": "isHost",
      "outputs": [
        {
          "internalType": "bool",
          "name": "",
          "type": "bool"
        }
      ],
      "stateMutability": "view",
      "type": "function",
      "constant": true
    },
    {
      "inputs": [
        {
          "internalType": "address",
          "name": "addr",
          "type": "address"
        },
        {
          "internalType": "uint256",
          "name": "index",
          "type": "uint256"
        }
      ],
      "name": "getClientData",
      "outputs": [
        {
          "internalType": "uint256",
          "name": "",
          "type": "uint256"
        }
      ],
      "stateMutability": "view",
      "type": "function",
      "constant": true
    },
    {
      "inputs": [
        {
          "internalType": "string",
          "name": "_name",
          "type": "string"
        },
        {
          "internalType": "uint256",
          "name": "port",
          "type": "uint256"
        },
        {
          "internalType": "string",
          "name": "ip",
          "type": "string"
        },
        {
          "internalType": "bytes32",
          "name": "locHash",
          "type": "bytes32"
        },
        {
          "internalType": "uint256",
          "name": "diskspace",
          "type": "uint256"
        }
      ],
      "name": "addHost",
      "outputs": [],
      "stateMutability": "nonpayable",
      "type": "function"
    },
    {
      "inputs": [
        {
          "internalType": "address payable",
          "name": "_to",
          "type": "address"
        },
        {
          "internalType": "uint256",
          "name": "amount",
          "type": "uint256"
        }
      ],
      "name": "confirmStorage",
      "outputs": [],
      "stateMutability": "payable",
      "type": "function",
      "payable": true
    },
    {
      "inputs": [
        {
          "internalType": "uint256",
          "name": "id",
          "type": "uint256"
        },
        {
          "internalType": "bytes32",
          "name": "genHash",
          "type": "bytes32"
        },
        {
          "internalType": "uint256",
          "name": "size",
          "type": "uint256"
        },
        {
          "internalType": "uint256",
          "name": "interval",
          "type": "uint256"
        },
        {
          "internalType": "uint256",
          "name": "salty",
          "type": "uint256"
        }
      ],
      "name": "initiateStorage",
      "outputs": [],
      "stateMutability": "payable",
      "type": "function",
      "payable": true
    }
  ],
  "bytecode": "0x608060405234801561001057600080fd5b50611a83806100206000396000f3fe6080604052600436106100a75760003560e01c8063bfdbb8d311610064578063bfdbb8d3146101dc578063c0a094fd14610205578063c660443f14610248578063c956063214610264578063eb2931b7146102a1578063f3cf1e0d146102de576100a7565b806308949c34146100ac578063240184df146100e95780633735b3c61461012657806358e21c561461016a5780635da40c47146101865780636c065548146101b1575b600080fd5b3480156100b857600080fd5b506100d360048036038101906100ce9190610ec0565b61031b565b6040516100e09190610f0f565b60405180910390f35b3480156100f557600080fd5b50610110600480360381019061010b9190610ec0565b610381565b60405161011d9190610f0f565b60405180910390f35b34801561013257600080fd5b5061014d60048036038101906101489190610f2a565b6103b2565b60405161016198979695949392919061100f565b60405180910390f35b610184600480360381019061017f91906110d9565b61052a565b005b34801561019257600080fd5b5061019b6105db565b6040516101a89190610f0f565b60405180910390f35b3480156101bd57600080fd5b506101c66105e1565b6040516101d39190610f0f565b60405180910390f35b3480156101e857600080fd5b5061020360048036038101906101fe919061127a565b6105e7565b005b34801561021157600080fd5b5061022c60048036038101906102279190610f2a565b61080a565b60405161023f979695949392919061132d565b60405180910390f35b610262600480360381019061025d919061139c565b61088c565b005b34801561027057600080fd5b5061028b60048036038101906102869190610f2a565b610dc0565b6040516102989190611432565b60405180910390f35b3480156102ad57600080fd5b506102c860048036038101906102c3919061144d565b610de0565b6040516102d59190611432565b60405180910390f35b3480156102ea57600080fd5b506103056004803603810190610300919061144d565b610e00565b6040516103129190610f0f565b60405180910390f35b6000600360008473ffffffffffffffffffffffffffffffffffffffff1673ffffffffffffffffffffffffffffffffffffffff168152602001908152602001600020828154811061036e5761036d61147a565b5b9060005260206000200154905092915050565b6003602052816000526040600020818154811061039d57600080fd5b90600052602060002001600091509150505481565b60006020528060005260406000206000915090508060000154908060010160009054906101000a900473ffffffffffffffffffffffffffffffffffffffff1690806002018054610401906114d8565b80601f016020809104026020016040519081016040528092919081815260200182805461042d906114d8565b801561047a5780601f1061044f5761010080835404028352916020019161047a565b820191906000526020600020905b81548152906001019060200180831161045d57829003601f168201915b505050505090806003015490806004018054610495906114d8565b80601f01602080910402602001604051908101604052809291908181526020018280546104c1906114d8565b801561050e5780601f106104e35761010080835404028352916020019161050e565b820191906000526020600020905b8154815290600101906020018083116104f157829003601f168201915b5050505050908060050154908060060154908060070154905088565b60008273ffffffffffffffffffffffffffffffffffffffff16826040516105509061153a565b60006040518083038185875af1925050503d806000811461058d576040519150601f19603f3d011682016040523d82523d6000602084013e610592565b606091505b50509050806105d6576040517f08c379a00000000000000000000000000000000000000000000000000000000081526004016105cd9061159b565b60405180910390fd5b505050565b60085481565b60075481565b600160003373ffffffffffffffffffffffffffffffffffffffff1673ffffffffffffffffffffffffffffffffffffffff16815260200190815260200160002060009054906101000a900460ff161561063e57600080fd5b60405180610100016040528060075481526020013373ffffffffffffffffffffffffffffffffffffffff168152602001848152602001858152602001868152602001828152602001838152602001600081525060008060075481526020019081526020016000206000820151816000015560208201518160010160006101000a81548173ffffffffffffffffffffffffffffffffffffffff021916908373ffffffffffffffffffffffffffffffffffffffff160217905550604082015181600201908161070b9190611767565b5060608201518160030155608082015181600401908161072b9190611767565b5060a0820151816005015560c0820151816006015560e0820151816007015590505060018060003373ffffffffffffffffffffffffffffffffffffffff1673ffffffffffffffffffffffffffffffffffffffff16815260200190815260200160002060006101000a81548160ff021916908315150217905550813373ffffffffffffffffffffffffffffffffffffffff166007547f9d9c5371072544fed0be92a032ce33d9f660ec1b60678429f5d989c74550178860405160405180910390a4600760008154809291906107fe90611868565b91905055505050505050565b60046020528060005260406000206000915090508060000154908060010160009054906101000a900473ffffffffffffffffffffffffffffffffffffffff16908060020160009054906101000a900473ffffffffffffffffffffffffffffffffffffffff16908060030154908060040154908060050154908060060154905087565b600160003373ffffffffffffffffffffffffffffffffffffffff1673ffffffffffffffffffffffffffffffffffffffff16815260200190815260200160002060009054906101000a900460ff16156108e357600080fd5b6001600080600088815260200190815260200160002060010160009054906101000a900473ffffffffffffffffffffffffffffffffffffffff1673ffffffffffffffffffffffffffffffffffffffff1673ffffffffffffffffffffffffffffffffffffffff16815260200190815260200160002060009054906101000a900460ff1661096e57600080fd5b6000808681526020019081526020016000206005015483111561099057600080fd5b600060085490506040518060e001604052808681526020013373ffffffffffffffffffffffffffffffffffffffff16815260200160008089815260200190815260200160002060010160009054906101000a900473ffffffffffffffffffffffffffffffffffffffff1673ffffffffffffffffffffffffffffffffffffffff16815260200184815260200185815260200183815260200182815250600460008381526020019081526020016000206000820151816000015560208201518160010160006101000a81548173ffffffffffffffffffffffffffffffffffffffff021916908373ffffffffffffffffffffffffffffffffffffffff16021790555060408201518160020160006101000a81548173ffffffffffffffffffffffffffffffffffffffff021916908373ffffffffffffffffffffffffffffffffffffffff160217905550606082015181600301556080820151816004015560a0820151816005015560c0820151816006015590505060008087815260200190815260200160002060066000838152602001908152602001600020600082015481600001556001820160009054906101000a900473ffffffffffffffffffffffffffffffffffffffff168160010160006101000a81548173ffffffffffffffffffffffffffffffffffffffff021916908373ffffffffffffffffffffffffffffffffffffffff16021790555060028201816002019081610bab91906118c6565b506003820154816003015560048201816004019081610bca91906118c6565b50600582015481600501556006820154816006015560078201548160070155905050836000808881526020019081526020016000206005016000828254610c1191906119ae565b9250508190555060016000808881526020019081526020016000206007016000828254610c3e91906119e2565b9250508190555060086000815480929190610c5890611868565b91905055506001600260003373ffffffffffffffffffffffffffffffffffffffff1673ffffffffffffffffffffffffffffffffffffffff1681526020019081526020016000206000828254610cad91906119e2565b92505081905550600360003373ffffffffffffffffffffffffffffffffffffffff1673ffffffffffffffffffffffffffffffffffffffff168152602001908152602001600020819080600181540180825580915050600190039060005260206000200160009091909190915055818160008089815260200190815260200160002060010160009054906101000a900473ffffffffffffffffffffffffffffffffffffffff1673ffffffffffffffffffffffffffffffffffffffff167f75fe89e105a75a08463b2e65413cab6b4bec031cd6dc305ed46da9983f17544c336000808c81526020019081526020016000206005015488604051610db093929190611a16565b60405180910390a4505050505050565b60056020528060005260406000206000915054906101000a900460ff1681565b60016020528060005260406000206000915054906101000a900460ff1681565b60026020528060005260406000206000915090505481565b6000604051905090565b600080fd5b600080fd5b600073ffffffffffffffffffffffffffffffffffffffff82169050919050565b6000610e5782610e2c565b9050919050565b610e6781610e4c565b8114610e7257600080fd5b50565b600081359050610e8481610e5e565b92915050565b6000819050919050565b610e9d81610e8a565b8114610ea857600080fd5b50565b600081359050610eba81610e94565b92915050565b60008060408385031215610ed757610ed6610e22565b5b6000610ee585828601610e75565b9250506020610ef685828601610eab565b9150509250929050565b610f0981610e8a565b82525050565b6000602082019050610f246000830184610f00565b92915050565b600060208284031215610f4057610f3f610e22565b5b6000610f4e84828501610eab565b91505092915050565b610f6081610e4c565b82525050565b600081519050919050565b600082825260208201905092915050565b60005b83811015610fa0578082015181840152602081019050610f85565b60008484015250505050565b6000601f19601f8301169050919050565b6000610fc882610f66565b610fd28185610f71565b9350610fe2818560208601610f82565b610feb81610fac565b840191505092915050565b6000819050919050565b61100981610ff6565b82525050565b600061010082019050611025600083018b610f00565b611032602083018a610f57565b81810360408301526110448189610fbd565b90506110536060830188610f00565b81810360808301526110658187610fbd565b905061107460a0830186610f00565b61108160c0830185611000565b61108e60e0830184610f00565b9998505050505050505050565b60006110a682610e2c565b9050919050565b6110b68161109b565b81146110c157600080fd5b50565b6000813590506110d3816110ad565b92915050565b600080604083850312156110f0576110ef610e22565b5b60006110fe858286016110c4565b925050602061110f85828601610eab565b9150509250929050565b600080fd5b600080fd5b7f4e487b7100000000000000000000000000000000000000000000000000000000600052604160045260246000fd5b61115b82610fac565b810181811067ffffffffffffffff8211171561117a57611179611123565b5b80604052505050565b600061118d610e18565b90506111998282611152565b919050565b600067ffffffffffffffff8211156111b9576111b8611123565b5b6111c282610fac565b9050602081019050919050565b82818337600083830152505050565b60006111f16111ec8461119e565b611183565b90508281526020810184848401111561120d5761120c61111e565b5b6112188482856111cf565b509392505050565b600082601f83011261123557611234611119565b5b81356112458482602086016111de565b91505092915050565b61125781610ff6565b811461126257600080fd5b50565b6000813590506112748161124e565b92915050565b600080600080600060a0868803121561129657611295610e22565b5b600086013567ffffffffffffffff8111156112b4576112b3610e27565b5b6112c088828901611220565b95505060206112d188828901610eab565b945050604086013567ffffffffffffffff8111156112f2576112f1610e27565b5b6112fe88828901611220565b935050606061130f88828901611265565b925050608061132088828901610eab565b9150509295509295909350565b600060e082019050611342600083018a611000565b61134f6020830189610f57565b61135c6040830188610f57565b6113696060830187610f00565b6113766080830186610f00565b61138360a0830185610f00565b61139060c0830184610f00565b98975050505050505050565b600080600080600060a086880312156113b8576113b7610e22565b5b60006113c688828901610eab565b95505060206113d788828901611265565b94505060406113e888828901610eab565b93505060606113f988828901610eab565b925050608061140a88828901610eab565b9150509295509295909350565b60008115159050919050565b61142c81611417565b82525050565b60006020820190506114476000830184611423565b92915050565b60006020828403121561146357611462610e22565b5b600061147184828501610e75565b91505092915050565b7f4e487b7100000000000000000000000000000000000000000000000000000000600052603260045260246000fd5b7f4e487b7100000000000000000000000000000000000000000000000000000000600052602260045260246000fd5b600060028204905060018216806114f057607f821691505b602082108103611503576115026114a9565b5b50919050565b600081905092915050565b50565b6000611524600083611509565b915061152f82611514565b600082019050919050565b600061154582611517565b9150819050919050565b7f7472616e73616374696f6e206661696c65640000000000000000000000000000600082015250565b6000611585601283610f71565b91506115908261154f565b602082019050919050565b600060208201905081810360008301526115b481611578565b9050919050565b60008190508160005260206000209050919050565b60006020601f8301049050919050565b600082821b905092915050565b60006008830261161d7fffffffffffffffffffffffffffffffffffffffffffffffffffffffffffffffff826115e0565b61162786836115e0565b95508019841693508086168417925050509392505050565b6000819050919050565b600061166461165f61165a84610e8a565b61163f565b610e8a565b9050919050565b6000819050919050565b61167e83611649565b61169261168a8261166b565b8484546115ed565b825550505050565b600090565b6116a761169a565b6116b2818484611675565b505050565b5b818110156116d6576116cb60008261169f565b6001810190506116b8565b5050565b601f82111561171b576116ec816115bb565b6116f5846115d0565b81016020851015611704578190505b611718611710856115d0565b8301826116b7565b50505b505050565b600082821c905092915050565b600061173e60001984600802611720565b1980831691505092915050565b6000611757838361172d565b9150826002028217905092915050565b61177082610f66565b67ffffffffffffffff81111561178957611788611123565b5b61179382546114d8565b61179e8282856116da565b600060209050601f8311600181146117d157600084156117bf578287015190505b6117c9858261174b565b865550611831565b601f1984166117df866115bb565b60005b82811015611807578489015182556001820191506020850194506020810190506117e2565b868310156118245784890151611820601f89168261172d565b8355505b6001600288020188555050505b505050505050565b7f4e487b7100000000000000000000000000000000000000000000000000000000600052601160045260246000fd5b600061187382610e8a565b91507fffffffffffffffffffffffffffffffffffffffffffffffffffffffffffffffff82036118a5576118a4611839565b5b600182019050919050565b6000815490506118bf816114d8565b9050919050565b8181036118d45750506119ac565b6118dd826118b0565b67ffffffffffffffff8111156118f6576118f5611123565b5b61190082546114d8565b61190b8282856116da565b6000601f83116001811461193a5760008415611928578287015490505b611932858261174b565b8655506119a5565b601f198416611948876115bb565b9650611953866115bb565b60005b8281101561197b57848901548255600182019150600185019450602081019050611956565b868310156119985784890154611994601f89168261172d565b8355505b6001600288020188555050505b5050505050505b565b60006119b982610e8a565b91506119c483610e8a565b92508282039050818111156119dc576119db611839565b5b92915050565b60006119ed82610e8a565b91506119f883610e8a565b9250828201905080821115611a1057611a0f611839565b5b92915050565b6000606082019050611a2b6000830186610f57565b611a386020830185610f00565b611a456040830184610f00565b94935050505056fea2646970667358221220ace6d00ee7252edfc3125f53a03ad79867c04ce2872b7426a1ed772b776b900764736f6c63430008130033",
  "immutableReferences": {},
  "source": "// SPDX-License-Identifier: SEE LICENSE IN LICENSE\npragma solidity 0.8.19;\n\ncontract Storage {\n    // MODEL A Host\n    struct Host {\n        uint id;\n        address myAddress;\n        string ip;\n        uint port;\n        string name;\n        uint diskspace;\n        bytes32 locHash;\n        uint dataCount;\n    }\n\n    struct Data {\n        bytes32 genHash;\n        address clientAddress;\n        address hostAddress;\n        uint auditInterval;\n        uint size;\n        uint salt;\n        uint dataId;\n    }\n\n    mapping(uint => Host) public hosts;\n    mapping(address => bool) public isHost;\n    mapping(address => uint) public clientDataCount;\n    mapping(address => uint[]) public clientDataMap;\n    mapping(uint => Data) public datas;\n    mapping(uint => bool) public isData;\n    mapping(uint => Host) private dataToHost; // since the mapping is one-to-many between host and data.\n    uint public hostCount;\n    uint public dataCount;\n    \n    constructor () {\n    }\n\n    function getClientData(address addr, uint index) public view returns(uint){\n        return clientDataMap[addr][index];\n    }\n\n    event addHostEvent (\n        uint indexed id,\n        address indexed myAddress,\n        bytes32 indexed locHash\n    );\n\n    function addHost (string memory _name, uint port, string memory ip, bytes32 locHash, uint diskspace) public {\n        require(!isHost[msg.sender]);\n\n        hosts[hostCount] = Host(hostCount, msg.sender, ip, port, _name, diskspace, locHash, 0);\n        isHost[msg.sender] = true;\n\n        emit addHostEvent(hostCount, msg.sender, locHash);\n        hostCount ++;\n    }\n\n    function confirmStorage(address payable _to, uint256 amount) external payable{\n        (bool success, ) = _to.call{value: amount}(\"\");\n        require(success, \"transaction failed\");\n    }\n\n    event initiateStorageEvent(\n        address indexed hostId,\n        address clientAddress,\n        uint remainingHostDiskspace,\n        uint indexed dataId,\n        uint interval,\n        uint indexed salty\n    );\n\n    // TO initiate storage of a file from client to host\n    // lochash - hash of Host ip, port, and name\n    // genHash - Hash of the encrypted file\n    // salt - salt of the hashing function \n    function initiateStorage (uint id, bytes32 genHash, uint size, uint interval, uint salty) public payable {\n        // Overall datacount update\n        require(!isHost[msg.sender]);\n        require(isHost[hosts[id].myAddress]);\n        require(size <= hosts[id].diskspace);\n        // Now that we get the input, we have to emit an event which is used as a check for socket transmission\n\n        uint dataid = dataCount;\n\n        // Create a Data Instance\n        datas[dataid] = Data(genHash, msg.sender, hosts[id].myAddress, interval, size, salty, dataid);\n\n        // Link Data to Host\n        dataToHost[dataid] = hosts[id];\n\n        // Update diskspace and dataCount of host\n        hosts[id].diskspace -= size;\n        hosts[id].dataCount += 1;\n\n        dataCount ++;\n        clientDataCount[msg.sender] += 1;\n        clientDataMap[msg.sender].push(dataid);\n        emit initiateStorageEvent(hosts[id].myAddress, msg.sender, hosts[id].diskspace, dataid, interval, salty);\n    } \n\n}",
  "sourcePath": "/Users/anuragparcha/Desktop/DCSBlockchain/contracts/Storage.sol",
  "compiler": {
    "name": "solc",
    "version": "0.8.19+commit.7dd6d404.Emscripten.clang"
  },
  "schemaVersion": "3.4.13",
  "updatedAt": "2023-04-11T02:04:01.693Z",
  "networkType": "ethereum",
  "devdoc": {
    "kind": "dev",
    "methods": {},
    "version": 1
  },
  "userdoc": {
    "kind": "user",
    "methods": {},
    "version": 1
  }
}