{
  "contractName": "Storage",
  "abi": [
    {
      "inputs": [],
      "stateMutability": "nonpayable",
      "type": "constructor"
    },
    {
      "anonymous": false,
      "inputs": [
        {
          "indexed": true,
          "internalType": "uint256",
          "name": "id",
          "type": "uint256"
        },
        {
          "indexed": true,
          "internalType": "address",
          "name": "myAddress",
          "type": "address"
        },
        {
          "indexed": true,
          "internalType": "bytes32",
          "name": "locHash",
          "type": "bytes32"
        }
      ],
      "name": "addHostEvent",
      "type": "event"
    },
    {
      "inputs": [],
      "name": "hostCount",
      "outputs": [
        {
          "internalType": "uint256",
          "name": "",
          "type": "uint256"
        }
      ],
      "stateMutability": "view",
      "type": "function",
      "constant": true
    },
    {
      "inputs": [
        {
          "internalType": "uint256",
          "name": "",
          "type": "uint256"
        }
      ],
      "name": "hosts",
      "outputs": [
        {
          "internalType": "uint256",
          "name": "id",
          "type": "uint256"
        },
        {
          "internalType": "address",
          "name": "myAddress",
          "type": "address"
        },
        {
          "internalType": "string",
          "name": "ip",
          "type": "string"
        },
        {
          "internalType": "uint256",
          "name": "port",
          "type": "uint256"
        },
        {
          "internalType": "string",
          "name": "name",
          "type": "string"
        },
        {
          "internalType": "uint256",
          "name": "diskspace",
          "type": "uint256"
        }
      ],
      "stateMutability": "view",
      "type": "function",
      "constant": true
    },
    {
      "inputs": [
        {
          "internalType": "address",
          "name": "",
          "type": "address"
        }
      ],
      "name": "isHost",
      "outputs": [
        {
          "internalType": "bool",
          "name": "",
          "type": "bool"
        }
      ],
      "stateMutability": "view",
      "type": "function",
      "constant": true
    },
    {
      "inputs": [
        {
          "internalType": "bytes32",
          "name": "",
          "type": "bytes32"
        }
      ],
      "name": "location_address",
      "outputs": [
        {
          "internalType": "address",
          "name": "",
          "type": "address"
        }
      ],
      "stateMutability": "view",
      "type": "function",
      "constant": true
    },
    {
      "inputs": [
        {
          "internalType": "string",
          "name": "_name",
          "type": "string"
        },
        {
          "internalType": "uint256",
          "name": "port",
          "type": "uint256"
        },
        {
          "internalType": "string",
          "name": "ip",
          "type": "string"
        },
        {
          "internalType": "bytes32",
          "name": "locHash",
          "type": "bytes32"
        },
        {
          "internalType": "uint256",
          "name": "diskspace",
          "type": "uint256"
        }
      ],
      "name": "addHost",
      "outputs": [],
      "stateMutability": "nonpayable",
      "type": "function"
    }
  ],
  "bytecode": "0x608060405234801561001057600080fd5b50610da4806100206000396000f3fe608060405234801561001057600080fd5b50600436106100575760003560e01c80633735b3c61461005c57806343956b49146100915780636c065548146100c1578063bfdbb8d3146100df578063eb2931b7146100fb575b600080fd5b6100766004803603810190610071919061058d565b61012b565b6040516100889695949392919061069a565b60405180910390f35b6100ab60048036038101906100a6919061073f565b610297565b6040516100b8919061076c565b60405180910390f35b6100c96102ca565b6040516100d69190610787565b60405180910390f35b6100f960048036038101906100f491906108d7565b6102d0565b005b610115600480360381019061011091906109b6565b610523565b60405161012291906109fe565b60405180910390f35b60006020528060005260406000206000915090508060000154908060010160009054906101000a900473ffffffffffffffffffffffffffffffffffffffff169080600201805461017a90610a48565b80601f01602080910402602001604051908101604052809291908181526020018280546101a690610a48565b80156101f35780601f106101c8576101008083540402835291602001916101f3565b820191906000526020600020905b8154815290600101906020018083116101d657829003601f168201915b50505050509080600301549080600401805461020e90610a48565b80601f016020809104026020016040519081016040528092919081815260200182805461023a90610a48565b80156102875780601f1061025c57610100808354040283529160200191610287565b820191906000526020600020905b81548152906001019060200180831161026a57829003601f168201915b5050505050908060050154905086565b60026020528060005260406000206000915054906101000a900473ffffffffffffffffffffffffffffffffffffffff1681565b60045481565b600160003373ffffffffffffffffffffffffffffffffffffffff1673ffffffffffffffffffffffffffffffffffffffff16815260200190815260200160002060009054906101000a900460ff161561032757600080fd5b6040518060c0016040528060045481526020013373ffffffffffffffffffffffffffffffffffffffff1681526020018481526020018581526020018681526020018281525060008060045481526020019081526020016000206000820151816000015560208201518160010160006101000a81548173ffffffffffffffffffffffffffffffffffffffff021916908373ffffffffffffffffffffffffffffffffffffffff16021790555060408201518160020190816103e69190610c25565b506060820151816003015560808201518160040190816104069190610c25565b5060a0820151816005015590505060018060003373ffffffffffffffffffffffffffffffffffffffff1673ffffffffffffffffffffffffffffffffffffffff16815260200190815260200160002060006101000a81548160ff021916908315150217905550336002600084815260200190815260200160002060006101000a81548173ffffffffffffffffffffffffffffffffffffffff021916908373ffffffffffffffffffffffffffffffffffffffff160217905550813373ffffffffffffffffffffffffffffffffffffffff166004547f9d9c5371072544fed0be92a032ce33d9f660ec1b60678429f5d989c74550178860405160405180910390a46004600081548092919061051790610d26565b91905055505050505050565b60016020528060005260406000206000915054906101000a900460ff1681565b6000604051905090565b600080fd5b600080fd5b6000819050919050565b61056a81610557565b811461057557600080fd5b50565b60008135905061058781610561565b92915050565b6000602082840312156105a3576105a261054d565b5b60006105b184828501610578565b91505092915050565b6105c381610557565b82525050565b600073ffffffffffffffffffffffffffffffffffffffff82169050919050565b60006105f4826105c9565b9050919050565b610604816105e9565b82525050565b600081519050919050565b600082825260208201905092915050565b60005b83811015610644578082015181840152602081019050610629565b60008484015250505050565b6000601f19601f8301169050919050565b600061066c8261060a565b6106768185610615565b9350610686818560208601610626565b61068f81610650565b840191505092915050565b600060c0820190506106af60008301896105ba565b6106bc60208301886105fb565b81810360408301526106ce8187610661565b90506106dd60608301866105ba565b81810360808301526106ef8185610661565b90506106fe60a08301846105ba565b979650505050505050565b6000819050919050565b61071c81610709565b811461072757600080fd5b50565b60008135905061073981610713565b92915050565b6000602082840312156107555761075461054d565b5b60006107638482850161072a565b91505092915050565b600060208201905061078160008301846105fb565b92915050565b600060208201905061079c60008301846105ba565b92915050565b600080fd5b600080fd5b7f4e487b7100000000000000000000000000000000000000000000000000000000600052604160045260246000fd5b6107e482610650565b810181811067ffffffffffffffff82111715610803576108026107ac565b5b80604052505050565b6000610816610543565b905061082282826107db565b919050565b600067ffffffffffffffff821115610842576108416107ac565b5b61084b82610650565b9050602081019050919050565b82818337600083830152505050565b600061087a61087584610827565b61080c565b905082815260208101848484011115610896576108956107a7565b5b6108a1848285610858565b509392505050565b600082601f8301126108be576108bd6107a2565b5b81356108ce848260208601610867565b91505092915050565b600080600080600060a086880312156108f3576108f261054d565b5b600086013567ffffffffffffffff81111561091157610910610552565b5b61091d888289016108a9565b955050602061092e88828901610578565b945050604086013567ffffffffffffffff81111561094f5761094e610552565b5b61095b888289016108a9565b935050606061096c8882890161072a565b925050608061097d88828901610578565b9150509295509295909350565b610993816105e9565b811461099e57600080fd5b50565b6000813590506109b08161098a565b92915050565b6000602082840312156109cc576109cb61054d565b5b60006109da848285016109a1565b91505092915050565b60008115159050919050565b6109f8816109e3565b82525050565b6000602082019050610a1360008301846109ef565b92915050565b7f4e487b7100000000000000000000000000000000000000000000000000000000600052602260045260246000fd5b60006002820490506001821680610a6057607f821691505b602082108103610a7357610a72610a19565b5b50919050565b60008190508160005260206000209050919050565b60006020601f8301049050919050565b600082821b905092915050565b600060088302610adb7fffffffffffffffffffffffffffffffffffffffffffffffffffffffffffffffff82610a9e565b610ae58683610a9e565b95508019841693508086168417925050509392505050565b6000819050919050565b6000610b22610b1d610b1884610557565b610afd565b610557565b9050919050565b6000819050919050565b610b3c83610b07565b610b50610b4882610b29565b848454610aab565b825550505050565b600090565b610b65610b58565b610b70818484610b33565b505050565b5b81811015610b9457610b89600082610b5d565b600181019050610b76565b5050565b601f821115610bd957610baa81610a79565b610bb384610a8e565b81016020851015610bc2578190505b610bd6610bce85610a8e565b830182610b75565b50505b505050565b600082821c905092915050565b6000610bfc60001984600802610bde565b1980831691505092915050565b6000610c158383610beb565b9150826002028217905092915050565b610c2e8261060a565b67ffffffffffffffff811115610c4757610c466107ac565b5b610c518254610a48565b610c5c828285610b98565b600060209050601f831160018114610c8f5760008415610c7d578287015190505b610c878582610c09565b865550610cef565b601f198416610c9d86610a79565b60005b82811015610cc557848901518255600182019150602085019450602081019050610ca0565b86831015610ce25784890151610cde601f891682610beb565b8355505b6001600288020188555050505b505050505050565b7f4e487b7100000000000000000000000000000000000000000000000000000000600052601160045260246000fd5b6000610d3182610557565b91507fffffffffffffffffffffffffffffffffffffffffffffffffffffffffffffffff8203610d6357610d62610cf7565b5b60018201905091905056fea26469706673582212209a0bf0b7697888e638acbd2356fe05ada24a8697973a0ccc3992e3af851d4f9664736f6c63430008130033",
  "immutableReferences": {},
  "source": "// SPDX-License-Identifier: SEE LICENSE IN LICENSE\npragma solidity 0.8.19;\n\ncontract Storage {\n    // MODEL A Host\n    struct Host {\n        uint id;\n        address myAddress;\n        string ip;\n        uint port;\n        string name;\n        uint diskspace;\n    }\n\n    mapping(uint => Host) public hosts;\n    mapping(address => bool) public isHost;\n    mapping(bytes32 => address) public location_address; \n    mapping(bytes32 => bytes32) private locHash_genHash;\n    uint public hostCount;\n    \n    constructor () {\n    }\n\n    event addHostEvent (\n        uint indexed id,\n        address indexed myAddress,\n        bytes32 indexed locHash\n    );\n\n    function addHost (string memory _name, uint port, string memory ip, bytes32 locHash, uint diskspace) public {\n        require(!isHost[msg.sender]);\n\n        hosts[hostCount] = Host(hostCount, msg.sender, ip, port, _name, diskspace);\n        isHost[msg.sender] = true;\n        location_address[locHash] = msg.sender;\n\n        emit addHostEvent(hostCount, msg.sender, locHash);\n        hostCount ++;\n    }\n\n    // event initiateStorage(\n        \n    // )\n\n    // // TO initiate storage of a file from client to host\n    // // lochash - hash of Host ip, port, and name\n    // // genHash - Hash of the encrypted file\n    // // salt - salt of the hashing function \n    // function initiateStorage (bytes32 lochash, bytes32 genhash, uint salt) public {\n    //     // Now that we get the input, we have to emit an event which is used as a check for socket transmission\n        \n    // } \n\n}",
  "sourcePath": "/Users/anuragparcha/Desktop/DCSBlockchain/contracts/Storage.sol",
  "compiler": {
    "name": "solc",
    "version": "0.8.19+commit.7dd6d404.Emscripten.clang"
  },
  "schemaVersion": "3.4.13",
  "updatedAt": "2023-04-04T18:13:44.781Z",
  "networkType": "ethereum",
  "devdoc": {
    "kind": "dev",
    "methods": {},
    "version": 1
  },
  "userdoc": {
    "kind": "user",
    "methods": {},
    "version": 1
  }
}