{
  "contractName": "Storage",
  "abi": [
    {
      "inputs": [],
      "stateMutability": "nonpayable",
      "type": "constructor"
    },
    {
      "anonymous": false,
      "inputs": [
        {
          "indexed": true,
          "internalType": "uint256",
          "name": "id",
          "type": "uint256"
        },
        {
          "indexed": true,
          "internalType": "address",
          "name": "myAddress",
          "type": "address"
        }
      ],
      "name": "addHostEvent",
      "type": "event"
    },
    {
      "inputs": [],
      "name": "hostCount",
      "outputs": [
        {
          "internalType": "uint256",
          "name": "",
          "type": "uint256"
        }
      ],
      "stateMutability": "view",
      "type": "function",
      "constant": true
    },
    {
      "inputs": [
        {
          "internalType": "uint256",
          "name": "",
          "type": "uint256"
        }
      ],
      "name": "hosts",
      "outputs": [
        {
          "internalType": "uint256",
          "name": "id",
          "type": "uint256"
        },
        {
          "internalType": "address",
          "name": "myAddress",
          "type": "address"
        },
        {
          "internalType": "string",
          "name": "ip",
          "type": "string"
        },
        {
          "internalType": "uint256",
          "name": "port",
          "type": "uint256"
        },
        {
          "internalType": "string",
          "name": "name",
          "type": "string"
        },
        {
          "internalType": "uint256",
          "name": "diskspace",
          "type": "uint256"
        }
      ],
      "stateMutability": "view",
      "type": "function",
      "constant": true
    },
    {
      "inputs": [
        {
          "internalType": "address",
          "name": "",
          "type": "address"
        }
      ],
      "name": "isHost",
      "outputs": [
        {
          "internalType": "bool",
          "name": "",
          "type": "bool"
        }
      ],
      "stateMutability": "view",
      "type": "function",
      "constant": true
    },
    {
      "inputs": [
        {
          "internalType": "string",
          "name": "_name",
          "type": "string"
        },
        {
          "internalType": "uint256",
          "name": "port",
          "type": "uint256"
        },
        {
          "internalType": "string",
          "name": "ip",
          "type": "string"
        },
        {
          "internalType": "uint256",
          "name": "diskspace",
          "type": "uint256"
        }
      ],
      "name": "addHost",
      "outputs": [],
      "stateMutability": "nonpayable",
      "type": "function"
    }
  ],
  "bytecode": "0x608060405234801561001057600080fd5b50610c50806100206000396000f3fe608060405234801561001057600080fd5b506004361061004c5760003560e01c806305729912146100515780633735b3c61461006d5780636c065548146100a2578063eb2931b7146100c0575b600080fd5b61006b60048036038101906100669190610611565b6100f0565b005b610087600480360381019061008291906106b0565b6102ef565b604051610099969594939291906107ac565b60405180910390f35b6100aa61045b565b6040516100b7919061081b565b60405180910390f35b6100da60048036038101906100d59190610862565b610461565b6040516100e791906108aa565b60405180910390f35b600160003373ffffffffffffffffffffffffffffffffffffffff1673ffffffffffffffffffffffffffffffffffffffff16815260200190815260200160002060009054906101000a900460ff161561014757600080fd5b6040518060c0016040528060025481526020013373ffffffffffffffffffffffffffffffffffffffff1681526020018381526020018481526020018581526020018281525060008060025481526020019081526020016000206000820151816000015560208201518160010160006101000a81548173ffffffffffffffffffffffffffffffffffffffff021916908373ffffffffffffffffffffffffffffffffffffffff16021790555060408201518160020190816102069190610ad1565b506060820151816003015560808201518160040190816102269190610ad1565b5060a0820151816005015590505060018060003373ffffffffffffffffffffffffffffffffffffffff1673ffffffffffffffffffffffffffffffffffffffff16815260200190815260200160002060006101000a81548160ff0219169083151502179055503373ffffffffffffffffffffffffffffffffffffffff166002547f688b2a9d47a9e89ead6cda35862ce7e4112346e9715ffb1027c309875776fece60405160405180910390a3600260008154809291906102e490610bd2565b919050555050505050565b60006020528060005260406000206000915090508060000154908060010160009054906101000a900473ffffffffffffffffffffffffffffffffffffffff169080600201805461033e906108f4565b80601f016020809104026020016040519081016040528092919081815260200182805461036a906108f4565b80156103b75780601f1061038c576101008083540402835291602001916103b7565b820191906000526020600020905b81548152906001019060200180831161039a57829003601f168201915b5050505050908060030154908060040180546103d2906108f4565b80601f01602080910402602001604051908101604052809291908181526020018280546103fe906108f4565b801561044b5780601f106104205761010080835404028352916020019161044b565b820191906000526020600020905b81548152906001019060200180831161042e57829003601f168201915b5050505050908060050154905086565b60025481565b60016020528060005260406000206000915054906101000a900460ff1681565b6000604051905090565b600080fd5b600080fd5b600080fd5b600080fd5b6000601f19601f8301169050919050565b7f4e487b7100000000000000000000000000000000000000000000000000000000600052604160045260246000fd5b6104e88261049f565b810181811067ffffffffffffffff82111715610507576105066104b0565b5b80604052505050565b600061051a610481565b905061052682826104df565b919050565b600067ffffffffffffffff821115610546576105456104b0565b5b61054f8261049f565b9050602081019050919050565b82818337600083830152505050565b600061057e6105798461052b565b610510565b90508281526020810184848401111561059a5761059961049a565b5b6105a584828561055c565b509392505050565b600082601f8301126105c2576105c1610495565b5b81356105d284826020860161056b565b91505092915050565b6000819050919050565b6105ee816105db565b81146105f957600080fd5b50565b60008135905061060b816105e5565b92915050565b6000806000806080858703121561062b5761062a61048b565b5b600085013567ffffffffffffffff81111561064957610648610490565b5b610655878288016105ad565b9450506020610666878288016105fc565b935050604085013567ffffffffffffffff81111561068757610686610490565b5b610693878288016105ad565b92505060606106a4878288016105fc565b91505092959194509250565b6000602082840312156106c6576106c561048b565b5b60006106d4848285016105fc565b91505092915050565b6106e6816105db565b82525050565b600073ffffffffffffffffffffffffffffffffffffffff82169050919050565b6000610717826106ec565b9050919050565b6107278161070c565b82525050565b600081519050919050565b600082825260208201905092915050565b60005b8381101561076757808201518184015260208101905061074c565b60008484015250505050565b600061077e8261072d565b6107888185610738565b9350610798818560208601610749565b6107a18161049f565b840191505092915050565b600060c0820190506107c160008301896106dd565b6107ce602083018861071e565b81810360408301526107e08187610773565b90506107ef60608301866106dd565b81810360808301526108018185610773565b905061081060a08301846106dd565b979650505050505050565b600060208201905061083060008301846106dd565b92915050565b61083f8161070c565b811461084a57600080fd5b50565b60008135905061085c81610836565b92915050565b6000602082840312156108785761087761048b565b5b60006108868482850161084d565b91505092915050565b60008115159050919050565b6108a48161088f565b82525050565b60006020820190506108bf600083018461089b565b92915050565b7f4e487b7100000000000000000000000000000000000000000000000000000000600052602260045260246000fd5b6000600282049050600182168061090c57607f821691505b60208210810361091f5761091e6108c5565b5b50919050565b60008190508160005260206000209050919050565b60006020601f8301049050919050565b600082821b905092915050565b6000600883026109877fffffffffffffffffffffffffffffffffffffffffffffffffffffffffffffffff8261094a565b610991868361094a565b95508019841693508086168417925050509392505050565b6000819050919050565b60006109ce6109c96109c4846105db565b6109a9565b6105db565b9050919050565b6000819050919050565b6109e8836109b3565b6109fc6109f4826109d5565b848454610957565b825550505050565b600090565b610a11610a04565b610a1c8184846109df565b505050565b5b81811015610a4057610a35600082610a09565b600181019050610a22565b5050565b601f821115610a8557610a5681610925565b610a5f8461093a565b81016020851015610a6e578190505b610a82610a7a8561093a565b830182610a21565b50505b505050565b600082821c905092915050565b6000610aa860001984600802610a8a565b1980831691505092915050565b6000610ac18383610a97565b9150826002028217905092915050565b610ada8261072d565b67ffffffffffffffff811115610af357610af26104b0565b5b610afd82546108f4565b610b08828285610a44565b600060209050601f831160018114610b3b5760008415610b29578287015190505b610b338582610ab5565b865550610b9b565b601f198416610b4986610925565b60005b82811015610b7157848901518255600182019150602085019450602081019050610b4c565b86831015610b8e5784890151610b8a601f891682610a97565b8355505b6001600288020188555050505b505050505050565b7f4e487b7100000000000000000000000000000000000000000000000000000000600052601160045260246000fd5b6000610bdd826105db565b91507fffffffffffffffffffffffffffffffffffffffffffffffffffffffffffffffff8203610c0f57610c0e610ba3565b5b60018201905091905056fea26469706673582212207af567193e7fc51d2d4eb2f863f8088832ad81c495ee69527635eaf02edb57da64736f6c63430008130033",
  "immutableReferences": {},
  "source": "// SPDX-License-Identifier: SEE LICENSE IN LICENSE\r\npragma solidity 0.8.19;\r\n\r\ncontract Storage {\r\n    // MODEL A Host\r\n    struct Host {\r\n        uint id;\r\n        address myAddress;\r\n        string ip;\r\n        uint port;\r\n        string name;\r\n        uint diskspace;\r\n    }\r\n\r\n    mapping(uint => Host) public hosts;\r\n    mapping(address => bool) public isHost;\r\n    uint public hostCount;\r\n    \r\n    constructor () {\r\n    }\r\n\r\n    event addHostEvent (\r\n        uint indexed id,\r\n        address indexed myAddress\r\n    );\r\n\r\n    function addHost (string memory _name, uint port, string memory ip, uint diskspace) public {\r\n        require(!isHost[msg.sender]);\r\n\r\n        hosts[hostCount] = Host(hostCount, msg.sender, ip, port, _name, diskspace);\r\n        isHost[msg.sender] = true;\r\n\r\n        emit addHostEvent(hostCount, msg.sender);\r\n        hostCount ++;\r\n    }\r\n\r\n}",
  "sourcePath": "C:\\Users\\sanja\\Desktop\\distorage-blockchain\\distorage-blockchain\\contracts\\Storage.sol",
  "compiler": {
    "name": "solc",
    "version": "0.8.19+commit.7dd6d404.Emscripten.clang"
  },
  "schemaVersion": "3.4.13",
  "updatedAt": "2023-04-03T21:38:43.044Z",
  "networkType": "ethereum",
  "devdoc": {
    "kind": "dev",
    "methods": {},
    "version": 1
  },
  "userdoc": {
    "kind": "user",
    "methods": {},
    "version": 1
  }
}